{
	"contracts/Hacking/passwordsafe2.sol": {
		"PasswordSafe2": {
			"abi": [
				{
					"inputs": [],
					"stateMutability": "nonpayable",
					"type": "constructor"
				},
				{
					"stateMutability": "nonpayable",
					"type": "fallback"
				},
				{
					"inputs": [
						{
							"internalType": "uint256",
							"name": "mKey",
							"type": "uint256"
						},
						{
							"internalType": "bytes32",
							"name": "_name",
							"type": "bytes32"
						},
						{
							"internalType": "uint256",
							"name": "_sKey",
							"type": "uint256"
						},
						{
							"internalType": "bytes32",
							"name": "_pw",
							"type": "bytes32"
						}
					],
					"name": "addPassword",
					"outputs": [],
					"stateMutability": "nonpayable",
					"type": "function"
				},
				{
					"inputs": [],
					"name": "bool_2",
					"outputs": [
						{
							"internalType": "bool",
							"name": "",
							"type": "bool"
						}
					],
					"stateMutability": "view",
					"type": "function"
				},
				{
					"inputs": [],
					"name": "bool_3",
					"outputs": [
						{
							"internalType": "bool",
							"name": "",
							"type": "bool"
						}
					],
					"stateMutability": "view",
					"type": "function"
				},
				{
					"inputs": [],
					"name": "constant1",
					"outputs": [
						{
							"internalType": "bytes32",
							"name": "",
							"type": "bytes32"
						}
					],
					"stateMutability": "view",
					"type": "function"
				},
				{
					"inputs": [],
					"name": "contractAdd",
					"outputs": [
						{
							"internalType": "address",
							"name": "",
							"type": "address"
						}
					],
					"stateMutability": "view",
					"type": "function"
				},
				{
					"inputs": [],
					"name": "getOTP",
					"outputs": [
						{
							"internalType": "uint16",
							"name": "",
							"type": "uint16"
						}
					],
					"stateMutability": "nonpayable",
					"type": "function"
				},
				{
					"inputs": [],
					"name": "locked",
					"outputs": [
						{
							"internalType": "bool",
							"name": "",
							"type": "bool"
						}
					],
					"stateMutability": "view",
					"type": "function"
				},
				{
					"inputs": [
						{
							"internalType": "uint256",
							"name": "_key",
							"type": "uint256"
						}
					],
					"name": "unlock",
					"outputs": [],
					"stateMutability": "nonpayable",
					"type": "function"
				},
				{
					"inputs": [],
					"name": "var16_3",
					"outputs": [
						{
							"internalType": "uint16",
							"name": "",
							"type": "uint16"
						}
					],
					"stateMutability": "view",
					"type": "function"
				},
				{
					"inputs": [],
					"name": "var256_1",
					"outputs": [
						{
							"internalType": "uint256",
							"name": "",
							"type": "uint256"
						}
					],
					"stateMutability": "view",
					"type": "function"
				}
			],
			"devdoc": {
				"kind": "dev",
				"methods": {},
				"version": 1
			},
			"evm": {
				"assembly": "    /* \"contracts/Hacking/passwordsafe2.sol\":25:1479  contract PasswordSafe2 {\r... */\n  mstore(0x40, 0x80)\n    /* \"contracts/Hacking/passwordsafe2.sol\":83:87  1337 */\n  0x0539\n    /* \"contracts/Hacking/passwordsafe2.sol\":57:87  uint256 public var256_1 = 1337 */\n  0x00\n  sstore\n    /* \"contracts/Hacking/passwordsafe2.sol\":115:119  true */\n  0x01\n    /* \"contracts/Hacking/passwordsafe2.sol\":94:119  bool public locked = true */\n  dup1\n  exp(0x0100, 0x00)\n  dup2\n  sload\n  dup2\n  0xff\n  mul\n  not\n  and\n  swap1\n  dup4\n  iszero\n  iszero\n  mul\n  or\n  swap1\n  sstore\n  pop\n    /* \"contracts/Hacking/passwordsafe2.sol\":147:152  false */\n  0x00\n    /* \"contracts/Hacking/passwordsafe2.sol\":126:152  bool public bool_2 = false */\n  0x01\n  dup1\n  0x0100\n  exp\n  dup2\n  sload\n  dup2\n  0xff\n  mul\n  not\n  and\n  swap1\n  dup4\n  iszero\n  iszero\n  mul\n  or\n  swap1\n  sstore\n  pop\n    /* \"contracts/Hacking/passwordsafe2.sol\":180:184  true */\n  0x01\n    /* \"contracts/Hacking/passwordsafe2.sol\":159:184  bool public bool_3 = true */\n  dup1\n  exp(0x0100, 0x02)\n  dup2\n  sload\n  dup2\n  0xff\n  mul\n  not\n  and\n  swap1\n  dup4\n  iszero\n  iszero\n  mul\n  or\n  swap1\n  sstore\n  pop\n    /* \"contracts/Hacking/passwordsafe2.sol\":215:219  2022 */\n  0x07e6\n    /* \"contracts/Hacking/passwordsafe2.sol\":191:219  uint16 public var16_3 = 2022 */\n  0x01\n  exp(0x0100, 0x03)\n  dup2\n  sload\n  dup2\n  0xffff\n  mul\n  not\n  and\n  swap1\n  dup4\n  0xffff\n  and\n  mul\n  or\n  swap1\n  sstore\n  pop\n    /* \"contracts/Hacking/passwordsafe2.sol\":251:252  2 */\n  0x02\n    /* \"contracts/Hacking/passwordsafe2.sol\":226:252  uint16 private useThis = 2 */\n  0x01\n  exp(0x0100, 0x05)\n  dup2\n  sload\n  dup2\n  0xffff\n  mul\n  not\n  and\n  swap1\n  dup4\n  0xffff\n  and\n  mul\n  or\n  swap1\n  sstore\n  pop\n    /* \"contracts/Hacking/passwordsafe2.sol\":284:286  63 */\n  0x3f\n    /* \"contracts/Hacking/passwordsafe2.sol\":259:286  uint16 private var16_2 = 63 */\n  0x01\n  exp(0x0100, 0x07)\n  dup2\n  sload\n  dup2\n  0xffff\n  mul\n  not\n  and\n  swap1\n  dup4\n  0xffff\n  and\n  mul\n  or\n  swap1\n  sstore\n  pop\n    /* \"contracts/Hacking/passwordsafe2.sol\":330:334  this */\n  address\n    /* \"contracts/Hacking/passwordsafe2.sol\":293:335  address public contractAdd = address(this) */\n  0x01\n  exp(0x0100, 0x09)\n  dup2\n  sload\n  dup2\n  0xffffffffffffffffffffffffffffffffffffffff\n  mul\n  not\n  and\n  swap1\n  dup4\n  0xffffffffffffffffffffffffffffffffffffffff\n  and\n  mul\n  or\n  swap1\n  sstore\n  pop\n    /* \"contracts/Hacking/passwordsafe2.sol\":371:372  0 */\n  0x00\n    /* \"contracts/Hacking/passwordsafe2.sol\":342:372  uint256 private otpUseTime = 0 */\n  0x02\n  sstore\n    /* \"contracts/Hacking/passwordsafe2.sol\":406:410  1337 */\n  0x0539\n    /* \"contracts/Hacking/passwordsafe2.sol\":379:410  uint256 private var256_3 = 1337 */\n  0x03\n  sstore\n    /* \"contracts/Hacking/passwordsafe2.sol\":510:512  11 */\n  0x0b\n    /* \"contracts/Hacking/passwordsafe2.sol\":488:512  uint16 private efgh = 11 */\n  0x06\n  exp(0x0100, 0x00)\n  dup2\n  sload\n  dup2\n  0xffff\n  mul\n  not\n  and\n  swap1\n  dup4\n  0xffff\n  and\n  mul\n  or\n  swap1\n  sstore\n  pop\n    /* \"contracts/Hacking/passwordsafe2.sol\":540:544  true */\n  0x01\n    /* \"contracts/Hacking/passwordsafe2.sol\":519:544  bool private _Pass = true */\n  0x06\n  exp(0x0100, 0x02)\n  dup2\n  sload\n  dup2\n  0xff\n  mul\n  not\n  and\n  swap1\n  dup4\n  iszero\n  iszero\n  mul\n  or\n  swap1\n  sstore\n  pop\n    /* \"contracts/Hacking/passwordsafe2.sol\":572:576  true */\n  0x01\n    /* \"contracts/Hacking/passwordsafe2.sol\":551:576  bool private _This = true */\n  0x06\n  exp(0x0100, 0x03)\n  dup2\n  sload\n  dup2\n  0xff\n  mul\n  not\n  and\n  swap1\n  dup4\n  iszero\n  iszero\n  mul\n  or\n  swap1\n  sstore\n  pop\n    /* \"contracts/Hacking/passwordsafe2.sol\":605:610  false */\n  0x00\n    /* \"contracts/Hacking/passwordsafe2.sol\":583:610  bool private _Level = false */\n  0x06\n  exp(0x0100, 0x04)\n  dup2\n  sload\n  dup2\n  0xff\n  mul\n  not\n  and\n  swap1\n  dup4\n  iszero\n  iszero\n  mul\n  or\n  swap1\n  sstore\n  pop\n    /* \"contracts/Hacking/passwordsafe2.sol\":918:970  constructor() public {\r... */\n  callvalue\n  dup1\n  iszero\n  tag_1\n  jumpi\n  0x00\n  dup1\n  revert\ntag_1:\n  pop\n    /* \"contracts/Hacking/passwordsafe2.sol\":954:964  msg.sender */\n  caller\n    /* \"contracts/Hacking/passwordsafe2.sol\":946:951  owner */\n  0x06\n  0x05\n    /* \"contracts/Hacking/passwordsafe2.sol\":946:964  owner = msg.sender */\n  0x0100\n  exp\n  dup2\n  sload\n  dup2\n  0xffffffffffffffffffffffffffffffffffffffff\n  mul\n  not\n  and\n  swap1\n  dup4\n  0xffffffffffffffffffffffffffffffffffffffff\n  and\n  mul\n  or\n  swap1\n  sstore\n  pop\n    /* \"contracts/Hacking/passwordsafe2.sol\":25:1479  contract PasswordSafe2 {\r... */\n  dataSize(sub_0)\n  dup1\n  dataOffset(sub_0)\n  0x00\n  codecopy\n  0x00\n  return\nstop\n\nsub_0: assembly {\n        /* \"contracts/Hacking/passwordsafe2.sol\":25:1479  contract PasswordSafe2 {\r... */\n      mstore(0x40, 0x80)\n      callvalue\n      dup1\n      iszero\n      tag_1\n      jumpi\n      0x00\n      dup1\n      revert\n    tag_1:\n      pop\n      jumpi(tag_2, lt(calldatasize, 0x04))\n      shr(0xe0, calldataload(0x00))\n      dup1\n      0xcf309012\n      gt\n      tag_14\n      jumpi\n      dup1\n      0xcf309012\n      eq\n      tag_9\n      jumpi\n      dup1\n      0xdfff67d9\n      eq\n      tag_10\n      jumpi\n      dup1\n      0xe94ad87b\n      eq\n      tag_11\n      jumpi\n      dup1\n      0xfa1cd153\n      eq\n      tag_12\n      jumpi\n      dup1\n      0xfdb2f39e\n      eq\n      tag_13\n      jumpi\n      jump(tag_3)\n    tag_14:\n      dup1\n      0x099290a4\n      eq\n      tag_4\n      jumpi\n      dup1\n      0x1a9f5a79\n      eq\n      tag_5\n      jumpi\n      dup1\n      0x6198e339\n      eq\n      tag_6\n      jumpi\n      dup1\n      0x74d96989\n      eq\n      tag_7\n      jumpi\n      dup1\n      0xbe3a34a8\n      eq\n      tag_8\n      jumpi\n      jump(tag_3)\n    tag_2:\n    tag_3:\n      stop\n        /* \"contracts/Hacking/passwordsafe2.sol\":974:1180  function addPassword(uint256 mKey, bytes32 _name, uint256 _sKey, bytes32 _pw) public {\r... */\n    tag_4:\n      tag_17\n      0x04\n      dup1\n      calldatasize\n      sub\n      0x80\n      dup2\n      lt\n      iszero\n      tag_18\n      jumpi\n      0x00\n      dup1\n      revert\n    tag_18:\n      dup2\n      add\n      swap1\n      dup1\n      dup1\n      calldataload\n      swap1\n      0x20\n      add\n      swap1\n      swap3\n      swap2\n      swap1\n      dup1\n      calldataload\n      swap1\n      0x20\n      add\n      swap1\n      swap3\n      swap2\n      swap1\n      dup1\n      calldataload\n      swap1\n      0x20\n      add\n      swap1\n      swap3\n      swap2\n      swap1\n      dup1\n      calldataload\n      swap1\n      0x20\n      add\n      swap1\n      swap3\n      swap2\n      swap1\n      pop\n      pop\n      pop\n      tag_19\n      jump\t// in\n    tag_17:\n      stop\n        /* \"contracts/Hacking/passwordsafe2.sol\":57:87  uint256 public var256_1 = 1337 */\n    tag_5:\n      tag_20\n      tag_21\n      jump\t// in\n    tag_20:\n      mload(0x40)\n      dup1\n      dup3\n      dup2\n      mstore\n      0x20\n      add\n      swap2\n      pop\n      pop\n      mload(0x40)\n      dup1\n      swap2\n      sub\n      swap1\n      return\n        /* \"contracts/Hacking/passwordsafe2.sol\":1312:1450  function unlock(uint256 _key) public {\r... */\n    tag_6:\n      tag_22\n      0x04\n      dup1\n      calldatasize\n      sub\n      0x20\n      dup2\n      lt\n      iszero\n      tag_23\n      jumpi\n      0x00\n      dup1\n      revert\n    tag_23:\n      dup2\n      add\n      swap1\n      dup1\n      dup1\n      calldataload\n      swap1\n      0x20\n      add\n      swap1\n      swap3\n      swap2\n      swap1\n      pop\n      pop\n      pop\n      tag_24\n      jump\t// in\n    tag_22:\n      stop\n        /* \"contracts/Hacking/passwordsafe2.sol\":674:744  bytes32 public constant constant1 = \"_____Welcome_to_Hackaday_!!_____\" */\n    tag_7:\n      tag_25\n      tag_26\n      jump\t// in\n    tag_25:\n      mload(0x40)\n      dup1\n      dup3\n      dup2\n      mstore\n      0x20\n      add\n      swap2\n      pop\n      pop\n      mload(0x40)\n      dup1\n      swap2\n      sub\n      swap1\n      return\n        /* \"contracts/Hacking/passwordsafe2.sol\":126:152  bool public bool_2 = false */\n    tag_8:\n      tag_27\n      tag_28\n      jump\t// in\n    tag_27:\n      mload(0x40)\n      dup1\n      dup3\n      iszero\n      iszero\n      dup2\n      mstore\n      0x20\n      add\n      swap2\n      pop\n      pop\n      mload(0x40)\n      dup1\n      swap2\n      sub\n      swap1\n      return\n        /* \"contracts/Hacking/passwordsafe2.sol\":94:119  bool public locked = true */\n    tag_9:\n      tag_29\n      tag_30\n      jump\t// in\n    tag_29:\n      mload(0x40)\n      dup1\n      dup3\n      iszero\n      iszero\n      dup2\n      mstore\n      0x20\n      add\n      swap2\n      pop\n      pop\n      mload(0x40)\n      dup1\n      swap2\n      sub\n      swap1\n      return\n        /* \"contracts/Hacking/passwordsafe2.sol\":1184:1308  function getOTP() public returns (uint16){\r... */\n    tag_10:\n      tag_31\n      tag_32\n      jump\t// in\n    tag_31:\n      mload(0x40)\n      dup1\n      dup3\n      0xffff\n      and\n      dup2\n      mstore\n      0x20\n      add\n      swap2\n      pop\n      pop\n      mload(0x40)\n      dup1\n      swap2\n      sub\n      swap1\n      return\n        /* \"contracts/Hacking/passwordsafe2.sol\":191:219  uint16 public var16_3 = 2022 */\n    tag_11:\n      tag_33\n      tag_34\n      jump\t// in\n    tag_33:\n      mload(0x40)\n      dup1\n      dup3\n      0xffff\n      and\n      dup2\n      mstore\n      0x20\n      add\n      swap2\n      pop\n      pop\n      mload(0x40)\n      dup1\n      swap2\n      sub\n      swap1\n      return\n        /* \"contracts/Hacking/passwordsafe2.sol\":159:184  bool public bool_3 = true */\n    tag_12:\n      tag_35\n      tag_36\n      jump\t// in\n    tag_35:\n      mload(0x40)\n      dup1\n      dup3\n      iszero\n      iszero\n      dup2\n      mstore\n      0x20\n      add\n      swap2\n      pop\n      pop\n      mload(0x40)\n      dup1\n      swap2\n      sub\n      swap1\n      return\n        /* \"contracts/Hacking/passwordsafe2.sol\":293:335  address public contractAdd = address(this) */\n    tag_13:\n      tag_37\n      tag_38\n      jump\t// in\n    tag_37:\n      mload(0x40)\n      dup1\n      dup3\n      0xffffffffffffffffffffffffffffffffffffffff\n      and\n      dup2\n      mstore\n      0x20\n      add\n      swap2\n      pop\n      pop\n      mload(0x40)\n      dup1\n      swap2\n      sub\n      swap1\n      return\n        /* \"contracts/Hacking/passwordsafe2.sol\":974:1180  function addPassword(uint256 mKey, bytes32 _name, uint256 _sKey, bytes32 _pw) public {\r... */\n    tag_19:\n        /* \"contracts/Hacking/passwordsafe2.sol\":1088:1093  owner */\n      0x06\n      0x05\n      swap1\n      sload\n      swap1\n      0x0100\n      exp\n      swap1\n      div\n      0xffffffffffffffffffffffffffffffffffffffff\n      and\n        /* \"contracts/Hacking/passwordsafe2.sol\":1074:1093  msg.sender == owner */\n      0xffffffffffffffffffffffffffffffffffffffff\n      and\n        /* \"contracts/Hacking/passwordsafe2.sol\":1074:1084  msg.sender */\n      caller\n        /* \"contracts/Hacking/passwordsafe2.sol\":1074:1093  msg.sender == owner */\n      0xffffffffffffffffffffffffffffffffffffffff\n      and\n      eq\n        /* \"contracts/Hacking/passwordsafe2.sol\":1066:1094  require(msg.sender == owner) */\n      tag_40\n      jumpi\n      0x00\n      dup1\n      revert\n    tag_40:\n        /* \"contracts/Hacking/passwordsafe2.sol\":1122:1174  Passwords({name:_name,secretKey:_sKey,password:_pw}) */\n      mload(0x40)\n      dup1\n      0x60\n      add\n      0x40\n      mstore\n      dup1\n        /* \"contracts/Hacking/passwordsafe2.sol\":1138:1143  _name */\n      dup5\n        /* \"contracts/Hacking/passwordsafe2.sol\":1122:1174  Passwords({name:_name,secretKey:_sKey,password:_pw}) */\n      dup2\n      mstore\n      0x20\n      add\n        /* \"contracts/Hacking/passwordsafe2.sol\":1154:1159  _sKey */\n      dup4\n        /* \"contracts/Hacking/passwordsafe2.sol\":1122:1174  Passwords({name:_name,secretKey:_sKey,password:_pw}) */\n      dup2\n      mstore\n      0x20\n      add\n        /* \"contracts/Hacking/passwordsafe2.sol\":1169:1172  _pw */\n      dup3\n        /* \"contracts/Hacking/passwordsafe2.sol\":1122:1174  Passwords({name:_name,secretKey:_sKey,password:_pw}) */\n      dup2\n      mstore\n      pop\n        /* \"contracts/Hacking/passwordsafe2.sol\":1101:1113  passwordBook */\n      0x07\n        /* \"contracts/Hacking/passwordsafe2.sol\":1101:1119  passwordBook[mKey] */\n      0x00\n        /* \"contracts/Hacking/passwordsafe2.sol\":1114:1118  mKey */\n      dup7\n        /* \"contracts/Hacking/passwordsafe2.sol\":1101:1119  passwordBook[mKey] */\n      dup2\n      mstore\n      0x20\n      add\n      swap1\n      dup2\n      mstore\n      0x20\n      add\n      0x00\n      keccak256\n        /* \"contracts/Hacking/passwordsafe2.sol\":1101:1174  passwordBook[mKey] = Passwords({name:_name,secretKey:_sKey,password:_pw}) */\n      0x00\n      dup3\n      add\n      mload\n      dup2\n      0x00\n      add\n      sstore\n      0x20\n      dup3\n      add\n      mload\n      dup2\n      0x01\n      add\n      sstore\n      0x40\n      dup3\n      add\n      mload\n      dup2\n      0x02\n      add\n      sstore\n      swap1\n      pop\n      pop\n        /* \"contracts/Hacking/passwordsafe2.sol\":974:1180  function addPassword(uint256 mKey, bytes32 _name, uint256 _sKey, bytes32 _pw) public {\r... */\n      pop\n      pop\n      pop\n      pop\n      jump\t// out\n        /* \"contracts/Hacking/passwordsafe2.sol\":57:87  uint256 public var256_1 = 1337 */\n    tag_21:\n      sload(0x00)\n      dup2\n      jump\t// out\n        /* \"contracts/Hacking/passwordsafe2.sol\":1312:1450  function unlock(uint256 _key) public {\r... */\n    tag_24:\n        /* \"contracts/Hacking/passwordsafe2.sol\":1372:1384  passwordBook */\n      0x07\n        /* \"contracts/Hacking/passwordsafe2.sol\":1372:1393  passwordBook[useThis] */\n      0x00\n        /* \"contracts/Hacking/passwordsafe2.sol\":1385:1392  useThis */\n      0x01\n      0x05\n      swap1\n      sload\n      swap1\n      0x0100\n      exp\n      swap1\n      div\n      0xffff\n      and\n        /* \"contracts/Hacking/passwordsafe2.sol\":1372:1393  passwordBook[useThis] */\n      0xffff\n      and\n      dup2\n      mstore\n      0x20\n      add\n      swap1\n      dup2\n      mstore\n      0x20\n      add\n      0x00\n      keccak256\n        /* \"contracts/Hacking/passwordsafe2.sol\":1372:1403  passwordBook[useThis].secretKey */\n      0x01\n      add\n      sload\n        /* \"contracts/Hacking/passwordsafe2.sol\":1364:1368  _key */\n      dup2\n        /* \"contracts/Hacking/passwordsafe2.sol\":1364:1403  _key == passwordBook[useThis].secretKey */\n      eq\n        /* \"contracts/Hacking/passwordsafe2.sol\":1364:1422  _key == passwordBook[useThis].secretKey && otpUseTime >= 1 */\n      dup1\n      iszero\n      tag_42\n      jumpi\n      pop\n        /* \"contracts/Hacking/passwordsafe2.sol\":1421:1422  1 */\n      0x01\n        /* \"contracts/Hacking/passwordsafe2.sol\":1407:1417  otpUseTime */\n      sload(0x02)\n        /* \"contracts/Hacking/passwordsafe2.sol\":1407:1422  otpUseTime >= 1 */\n      lt\n      iszero\n        /* \"contracts/Hacking/passwordsafe2.sol\":1364:1422  _key == passwordBook[useThis].secretKey && otpUseTime >= 1 */\n    tag_42:\n        /* \"contracts/Hacking/passwordsafe2.sol\":1356:1423  require(_key == passwordBook[useThis].secretKey && otpUseTime >= 1) */\n      tag_43\n      jumpi\n      0x00\n      dup1\n      revert\n    tag_43:\n        /* \"contracts/Hacking/passwordsafe2.sol\":1439:1444  false */\n      0x00\n        /* \"contracts/Hacking/passwordsafe2.sol\":1430:1436  locked */\n      0x01\n      0x00\n        /* \"contracts/Hacking/passwordsafe2.sol\":1430:1444  locked = false */\n      0x0100\n      exp\n      dup2\n      sload\n      dup2\n      0xff\n      mul\n      not\n      and\n      swap1\n      dup4\n      iszero\n      iszero\n      mul\n      or\n      swap1\n      sstore\n      pop\n        /* \"contracts/Hacking/passwordsafe2.sol\":1312:1450  function unlock(uint256 _key) public {\r... */\n      pop\n      jump\t// out\n        /* \"contracts/Hacking/passwordsafe2.sol\":674:744  bytes32 public constant constant1 = \"_____Welcome_to_Hackaday_!!_____\" */\n    tag_26:\n      0x5f5f5f5f5f57656c636f6d655f746f5f4861636b616461795f21215f5f5f5f5f\n      dup2\n      jump\t// out\n        /* \"contracts/Hacking/passwordsafe2.sol\":126:152  bool public bool_2 = false */\n    tag_28:\n      0x01\n      dup1\n      sload\n      swap1\n      0x0100\n      exp\n      swap1\n      div\n      0xff\n      and\n      dup2\n      jump\t// out\n        /* \"contracts/Hacking/passwordsafe2.sol\":94:119  bool public locked = true */\n    tag_30:\n      0x01\n      0x00\n      swap1\n      sload\n      swap1\n      0x0100\n      exp\n      swap1\n      div\n      0xff\n      and\n      dup2\n      jump\t// out\n        /* \"contracts/Hacking/passwordsafe2.sol\":1184:1308  function getOTP() public returns (uint16){\r... */\n    tag_32:\n        /* \"contracts/Hacking/passwordsafe2.sol\":1218:1224  uint16 */\n      0x00\n        /* \"contracts/Hacking/passwordsafe2.sol\":1281:1282  5 */\n      0x05\n        /* \"contracts/Hacking/passwordsafe2.sol\":1262:1278  block.difficulty */\n      difficulty\n        /* \"contracts/Hacking/passwordsafe2.sol\":1249:1261  block.number */\n      number\n        /* \"contracts/Hacking/passwordsafe2.sol\":1249:1278  block.number*block.difficulty */\n      mul\n        /* \"contracts/Hacking/passwordsafe2.sol\":1249:1282  block.number*block.difficulty % 5 */\n      dup2\n      tag_45\n      jumpi\n      invalid\n    tag_45:\n      mod\n        /* \"contracts/Hacking/passwordsafe2.sol\":1232:1239  useThis */\n      0x01\n      0x05\n        /* \"contracts/Hacking/passwordsafe2.sol\":1232:1283  useThis = uint16(block.number*block.difficulty % 5) */\n      0x0100\n      exp\n      dup2\n      sload\n      dup2\n      0xffff\n      mul\n      not\n      and\n      swap1\n      dup4\n      0xffff\n      and\n      mul\n      or\n      swap1\n      sstore\n      pop\n        /* \"contracts/Hacking/passwordsafe2.sol\":1290:1300  otpUseTime */\n      0x02\n      0x00\n        /* \"contracts/Hacking/passwordsafe2.sol\":1290:1302  otpUseTime++ */\n      dup2\n      sload\n      dup1\n      swap3\n      swap2\n      swap1\n      0x01\n      add\n      swap2\n      swap1\n      pop\n      sstore\n      pop\n        /* \"contracts/Hacking/passwordsafe2.sol\":1184:1308  function getOTP() public returns (uint16){\r... */\n      swap1\n      jump\t// out\n        /* \"contracts/Hacking/passwordsafe2.sol\":191:219  uint16 public var16_3 = 2022 */\n    tag_34:\n      0x01\n      0x03\n      swap1\n      sload\n      swap1\n      0x0100\n      exp\n      swap1\n      div\n      0xffff\n      and\n      dup2\n      jump\t// out\n        /* \"contracts/Hacking/passwordsafe2.sol\":159:184  bool public bool_3 = true */\n    tag_36:\n      0x01\n      0x02\n      swap1\n      sload\n      swap1\n      0x0100\n      exp\n      swap1\n      div\n      0xff\n      and\n      dup2\n      jump\t// out\n        /* \"contracts/Hacking/passwordsafe2.sol\":293:335  address public contractAdd = address(this) */\n    tag_38:\n      0x01\n      0x09\n      swap1\n      sload\n      swap1\n      0x0100\n      exp\n      swap1\n      div\n      0xffffffffffffffffffffffffffffffffffffffff\n      and\n      dup2\n      jump\t// out\n\n    auxdata: 0xa26469706673582212201bad32420c068fbdaf290ce9c677efa2df6ab7eb9985173d567a4ee6dc67b58d64736f6c634300060c0033\n}\n",
				"bytecode": {
					"linkReferences": {},
					"object": "608060405261053960005560018060006101000a81548160ff02191690831515021790555060006001806101000a81548160ff02191690831515021790555060018060026101000a81548160ff0219169083151502179055506107e6600160036101000a81548161ffff021916908361ffff1602179055506002600160056101000a81548161ffff021916908361ffff160217905550603f600160076101000a81548161ffff021916908361ffff16021790555030600160096101000a81548173ffffffffffffffffffffffffffffffffffffffff021916908373ffffffffffffffffffffffffffffffffffffffff1602179055506000600255610539600355600b600660006101000a81548161ffff021916908361ffff1602179055506001600660026101000a81548160ff0219169083151502179055506001600660036101000a81548160ff0219169083151502179055506000600660046101000a81548160ff02191690831515021790555034801561017a57600080fd5b5033600660056101000a81548173ffffffffffffffffffffffffffffffffffffffff021916908373ffffffffffffffffffffffffffffffffffffffff160217905550610456806101cb6000396000f3fe608060405234801561001057600080fd5b50600436106100a25760003560e01c8063cf30901211610066578063cf3090121461017b578063dfff67d91461019b578063e94ad87b146101bd578063fa1cd153146101df578063fdb2f39e146101ff576100a3565b8063099290a4146100a55780631a9f5a79146100f15780636198e3391461010f57806374d969891461013d578063be3a34a81461015b576100a3565b5b005b6100ef600480360360808110156100bb57600080fd5b8101908080359060200190929190803590602001909291908035906020019092919080359060200190929190505050610233565b005b6100f96102e2565b6040518082815260200191505060405180910390f35b61013b6004803603602081101561012557600080fd5b81019080803590602001909291905050506102e8565b005b61014561034b565b6040518082815260200191505060405180910390f35b61016361036f565b60405180821515815260200191505060405180910390f35b610183610380565b60405180821515815260200191505060405180910390f35b6101a3610393565b604051808261ffff16815260200191505060405180910390f35b6101c56103d3565b604051808261ffff16815260200191505060405180910390f35b6101e76103e7565b60405180821515815260200191505060405180910390f35b6102076103fa565b604051808273ffffffffffffffffffffffffffffffffffffffff16815260200191505060405180910390f35b600660059054906101000a900473ffffffffffffffffffffffffffffffffffffffff1673ffffffffffffffffffffffffffffffffffffffff163373ffffffffffffffffffffffffffffffffffffffff161461028d57600080fd5b6040518060600160405280848152602001838152602001828152506007600086815260200190815260200160002060008201518160000155602082015181600101556040820151816002015590505050505050565b60005481565b60076000600160059054906101000a900461ffff1661ffff16815260200190815260200160002060010154811480156103245750600160025410155b61032d57600080fd5b6000600160006101000a81548160ff02191690831515021790555050565b7f5f5f5f5f5f57656c636f6d655f746f5f4861636b616461795f21215f5f5f5f5f81565b60018054906101000a900460ff1681565b600160009054906101000a900460ff1681565b60006005444302816103a157fe5b06600160056101000a81548161ffff021916908361ffff16021790555060026000815480929190600101919050555090565b600160039054906101000a900461ffff1681565b600160029054906101000a900460ff1681565b600160099054906101000a900473ffffffffffffffffffffffffffffffffffffffff168156fea26469706673582212201bad32420c068fbdaf290ce9c677efa2df6ab7eb9985173d567a4ee6dc67b58d64736f6c634300060c0033",
					"opcodes": "PUSH1 0x80 PUSH1 0x40 MSTORE PUSH2 0x539 PUSH1 0x0 SSTORE PUSH1 0x1 DUP1 PUSH1 0x0 PUSH2 0x100 EXP DUP2 SLOAD DUP2 PUSH1 0xFF MUL NOT AND SWAP1 DUP4 ISZERO ISZERO MUL OR SWAP1 SSTORE POP PUSH1 0x0 PUSH1 0x1 DUP1 PUSH2 0x100 EXP DUP2 SLOAD DUP2 PUSH1 0xFF MUL NOT AND SWAP1 DUP4 ISZERO ISZERO MUL OR SWAP1 SSTORE POP PUSH1 0x1 DUP1 PUSH1 0x2 PUSH2 0x100 EXP DUP2 SLOAD DUP2 PUSH1 0xFF MUL NOT AND SWAP1 DUP4 ISZERO ISZERO MUL OR SWAP1 SSTORE POP PUSH2 0x7E6 PUSH1 0x1 PUSH1 0x3 PUSH2 0x100 EXP DUP2 SLOAD DUP2 PUSH2 0xFFFF MUL NOT AND SWAP1 DUP4 PUSH2 0xFFFF AND MUL OR SWAP1 SSTORE POP PUSH1 0x2 PUSH1 0x1 PUSH1 0x5 PUSH2 0x100 EXP DUP2 SLOAD DUP2 PUSH2 0xFFFF MUL NOT AND SWAP1 DUP4 PUSH2 0xFFFF AND MUL OR SWAP1 SSTORE POP PUSH1 0x3F PUSH1 0x1 PUSH1 0x7 PUSH2 0x100 EXP DUP2 SLOAD DUP2 PUSH2 0xFFFF MUL NOT AND SWAP1 DUP4 PUSH2 0xFFFF AND MUL OR SWAP1 SSTORE POP ADDRESS PUSH1 0x1 PUSH1 0x9 PUSH2 0x100 EXP DUP2 SLOAD DUP2 PUSH20 0xFFFFFFFFFFFFFFFFFFFFFFFFFFFFFFFFFFFFFFFF MUL NOT AND SWAP1 DUP4 PUSH20 0xFFFFFFFFFFFFFFFFFFFFFFFFFFFFFFFFFFFFFFFF AND MUL OR SWAP1 SSTORE POP PUSH1 0x0 PUSH1 0x2 SSTORE PUSH2 0x539 PUSH1 0x3 SSTORE PUSH1 0xB PUSH1 0x6 PUSH1 0x0 PUSH2 0x100 EXP DUP2 SLOAD DUP2 PUSH2 0xFFFF MUL NOT AND SWAP1 DUP4 PUSH2 0xFFFF AND MUL OR SWAP1 SSTORE POP PUSH1 0x1 PUSH1 0x6 PUSH1 0x2 PUSH2 0x100 EXP DUP2 SLOAD DUP2 PUSH1 0xFF MUL NOT AND SWAP1 DUP4 ISZERO ISZERO MUL OR SWAP1 SSTORE POP PUSH1 0x1 PUSH1 0x6 PUSH1 0x3 PUSH2 0x100 EXP DUP2 SLOAD DUP2 PUSH1 0xFF MUL NOT AND SWAP1 DUP4 ISZERO ISZERO MUL OR SWAP1 SSTORE POP PUSH1 0x0 PUSH1 0x6 PUSH1 0x4 PUSH2 0x100 EXP DUP2 SLOAD DUP2 PUSH1 0xFF MUL NOT AND SWAP1 DUP4 ISZERO ISZERO MUL OR SWAP1 SSTORE POP CALLVALUE DUP1 ISZERO PUSH2 0x17A JUMPI PUSH1 0x0 DUP1 REVERT JUMPDEST POP CALLER PUSH1 0x6 PUSH1 0x5 PUSH2 0x100 EXP DUP2 SLOAD DUP2 PUSH20 0xFFFFFFFFFFFFFFFFFFFFFFFFFFFFFFFFFFFFFFFF MUL NOT AND SWAP1 DUP4 PUSH20 0xFFFFFFFFFFFFFFFFFFFFFFFFFFFFFFFFFFFFFFFF AND MUL OR SWAP1 SSTORE POP PUSH2 0x456 DUP1 PUSH2 0x1CB PUSH1 0x0 CODECOPY PUSH1 0x0 RETURN INVALID PUSH1 0x80 PUSH1 0x40 MSTORE CALLVALUE DUP1 ISZERO PUSH2 0x10 JUMPI PUSH1 0x0 DUP1 REVERT JUMPDEST POP PUSH1 0x4 CALLDATASIZE LT PUSH2 0xA2 JUMPI PUSH1 0x0 CALLDATALOAD PUSH1 0xE0 SHR DUP1 PUSH4 0xCF309012 GT PUSH2 0x66 JUMPI DUP1 PUSH4 0xCF309012 EQ PUSH2 0x17B JUMPI DUP1 PUSH4 0xDFFF67D9 EQ PUSH2 0x19B JUMPI DUP1 PUSH4 0xE94AD87B EQ PUSH2 0x1BD JUMPI DUP1 PUSH4 0xFA1CD153 EQ PUSH2 0x1DF JUMPI DUP1 PUSH4 0xFDB2F39E EQ PUSH2 0x1FF JUMPI PUSH2 0xA3 JUMP JUMPDEST DUP1 PUSH4 0x99290A4 EQ PUSH2 0xA5 JUMPI DUP1 PUSH4 0x1A9F5A79 EQ PUSH2 0xF1 JUMPI DUP1 PUSH4 0x6198E339 EQ PUSH2 0x10F JUMPI DUP1 PUSH4 0x74D96989 EQ PUSH2 0x13D JUMPI DUP1 PUSH4 0xBE3A34A8 EQ PUSH2 0x15B JUMPI PUSH2 0xA3 JUMP JUMPDEST JUMPDEST STOP JUMPDEST PUSH2 0xEF PUSH1 0x4 DUP1 CALLDATASIZE SUB PUSH1 0x80 DUP2 LT ISZERO PUSH2 0xBB JUMPI PUSH1 0x0 DUP1 REVERT JUMPDEST DUP2 ADD SWAP1 DUP1 DUP1 CALLDATALOAD SWAP1 PUSH1 0x20 ADD SWAP1 SWAP3 SWAP2 SWAP1 DUP1 CALLDATALOAD SWAP1 PUSH1 0x20 ADD SWAP1 SWAP3 SWAP2 SWAP1 DUP1 CALLDATALOAD SWAP1 PUSH1 0x20 ADD SWAP1 SWAP3 SWAP2 SWAP1 DUP1 CALLDATALOAD SWAP1 PUSH1 0x20 ADD SWAP1 SWAP3 SWAP2 SWAP1 POP POP POP PUSH2 0x233 JUMP JUMPDEST STOP JUMPDEST PUSH2 0xF9 PUSH2 0x2E2 JUMP JUMPDEST PUSH1 0x40 MLOAD DUP1 DUP3 DUP2 MSTORE PUSH1 0x20 ADD SWAP2 POP POP PUSH1 0x40 MLOAD DUP1 SWAP2 SUB SWAP1 RETURN JUMPDEST PUSH2 0x13B PUSH1 0x4 DUP1 CALLDATASIZE SUB PUSH1 0x20 DUP2 LT ISZERO PUSH2 0x125 JUMPI PUSH1 0x0 DUP1 REVERT JUMPDEST DUP2 ADD SWAP1 DUP1 DUP1 CALLDATALOAD SWAP1 PUSH1 0x20 ADD SWAP1 SWAP3 SWAP2 SWAP1 POP POP POP PUSH2 0x2E8 JUMP JUMPDEST STOP JUMPDEST PUSH2 0x145 PUSH2 0x34B JUMP JUMPDEST PUSH1 0x40 MLOAD DUP1 DUP3 DUP2 MSTORE PUSH1 0x20 ADD SWAP2 POP POP PUSH1 0x40 MLOAD DUP1 SWAP2 SUB SWAP1 RETURN JUMPDEST PUSH2 0x163 PUSH2 0x36F JUMP JUMPDEST PUSH1 0x40 MLOAD DUP1 DUP3 ISZERO ISZERO DUP2 MSTORE PUSH1 0x20 ADD SWAP2 POP POP PUSH1 0x40 MLOAD DUP1 SWAP2 SUB SWAP1 RETURN JUMPDEST PUSH2 0x183 PUSH2 0x380 JUMP JUMPDEST PUSH1 0x40 MLOAD DUP1 DUP3 ISZERO ISZERO DUP2 MSTORE PUSH1 0x20 ADD SWAP2 POP POP PUSH1 0x40 MLOAD DUP1 SWAP2 SUB SWAP1 RETURN JUMPDEST PUSH2 0x1A3 PUSH2 0x393 JUMP JUMPDEST PUSH1 0x40 MLOAD DUP1 DUP3 PUSH2 0xFFFF AND DUP2 MSTORE PUSH1 0x20 ADD SWAP2 POP POP PUSH1 0x40 MLOAD DUP1 SWAP2 SUB SWAP1 RETURN JUMPDEST PUSH2 0x1C5 PUSH2 0x3D3 JUMP JUMPDEST PUSH1 0x40 MLOAD DUP1 DUP3 PUSH2 0xFFFF AND DUP2 MSTORE PUSH1 0x20 ADD SWAP2 POP POP PUSH1 0x40 MLOAD DUP1 SWAP2 SUB SWAP1 RETURN JUMPDEST PUSH2 0x1E7 PUSH2 0x3E7 JUMP JUMPDEST PUSH1 0x40 MLOAD DUP1 DUP3 ISZERO ISZERO DUP2 MSTORE PUSH1 0x20 ADD SWAP2 POP POP PUSH1 0x40 MLOAD DUP1 SWAP2 SUB SWAP1 RETURN JUMPDEST PUSH2 0x207 PUSH2 0x3FA JUMP JUMPDEST PUSH1 0x40 MLOAD DUP1 DUP3 PUSH20 0xFFFFFFFFFFFFFFFFFFFFFFFFFFFFFFFFFFFFFFFF AND DUP2 MSTORE PUSH1 0x20 ADD SWAP2 POP POP PUSH1 0x40 MLOAD DUP1 SWAP2 SUB SWAP1 RETURN JUMPDEST PUSH1 0x6 PUSH1 0x5 SWAP1 SLOAD SWAP1 PUSH2 0x100 EXP SWAP1 DIV PUSH20 0xFFFFFFFFFFFFFFFFFFFFFFFFFFFFFFFFFFFFFFFF AND PUSH20 0xFFFFFFFFFFFFFFFFFFFFFFFFFFFFFFFFFFFFFFFF AND CALLER PUSH20 0xFFFFFFFFFFFFFFFFFFFFFFFFFFFFFFFFFFFFFFFF AND EQ PUSH2 0x28D JUMPI PUSH1 0x0 DUP1 REVERT JUMPDEST PUSH1 0x40 MLOAD DUP1 PUSH1 0x60 ADD PUSH1 0x40 MSTORE DUP1 DUP5 DUP2 MSTORE PUSH1 0x20 ADD DUP4 DUP2 MSTORE PUSH1 0x20 ADD DUP3 DUP2 MSTORE POP PUSH1 0x7 PUSH1 0x0 DUP7 DUP2 MSTORE PUSH1 0x20 ADD SWAP1 DUP2 MSTORE PUSH1 0x20 ADD PUSH1 0x0 KECCAK256 PUSH1 0x0 DUP3 ADD MLOAD DUP2 PUSH1 0x0 ADD SSTORE PUSH1 0x20 DUP3 ADD MLOAD DUP2 PUSH1 0x1 ADD SSTORE PUSH1 0x40 DUP3 ADD MLOAD DUP2 PUSH1 0x2 ADD SSTORE SWAP1 POP POP POP POP POP POP JUMP JUMPDEST PUSH1 0x0 SLOAD DUP2 JUMP JUMPDEST PUSH1 0x7 PUSH1 0x0 PUSH1 0x1 PUSH1 0x5 SWAP1 SLOAD SWAP1 PUSH2 0x100 EXP SWAP1 DIV PUSH2 0xFFFF AND PUSH2 0xFFFF AND DUP2 MSTORE PUSH1 0x20 ADD SWAP1 DUP2 MSTORE PUSH1 0x20 ADD PUSH1 0x0 KECCAK256 PUSH1 0x1 ADD SLOAD DUP2 EQ DUP1 ISZERO PUSH2 0x324 JUMPI POP PUSH1 0x1 PUSH1 0x2 SLOAD LT ISZERO JUMPDEST PUSH2 0x32D JUMPI PUSH1 0x0 DUP1 REVERT JUMPDEST PUSH1 0x0 PUSH1 0x1 PUSH1 0x0 PUSH2 0x100 EXP DUP2 SLOAD DUP2 PUSH1 0xFF MUL NOT AND SWAP1 DUP4 ISZERO ISZERO MUL OR SWAP1 SSTORE POP POP JUMP JUMPDEST PUSH32 0x5F5F5F5F5F57656C636F6D655F746F5F4861636B616461795F21215F5F5F5F5F DUP2 JUMP JUMPDEST PUSH1 0x1 DUP1 SLOAD SWAP1 PUSH2 0x100 EXP SWAP1 DIV PUSH1 0xFF AND DUP2 JUMP JUMPDEST PUSH1 0x1 PUSH1 0x0 SWAP1 SLOAD SWAP1 PUSH2 0x100 EXP SWAP1 DIV PUSH1 0xFF AND DUP2 JUMP JUMPDEST PUSH1 0x0 PUSH1 0x5 DIFFICULTY NUMBER MUL DUP2 PUSH2 0x3A1 JUMPI INVALID JUMPDEST MOD PUSH1 0x1 PUSH1 0x5 PUSH2 0x100 EXP DUP2 SLOAD DUP2 PUSH2 0xFFFF MUL NOT AND SWAP1 DUP4 PUSH2 0xFFFF AND MUL OR SWAP1 SSTORE POP PUSH1 0x2 PUSH1 0x0 DUP2 SLOAD DUP1 SWAP3 SWAP2 SWAP1 PUSH1 0x1 ADD SWAP2 SWAP1 POP SSTORE POP SWAP1 JUMP JUMPDEST PUSH1 0x1 PUSH1 0x3 SWAP1 SLOAD SWAP1 PUSH2 0x100 EXP SWAP1 DIV PUSH2 0xFFFF AND DUP2 JUMP JUMPDEST PUSH1 0x1 PUSH1 0x2 SWAP1 SLOAD SWAP1 PUSH2 0x100 EXP SWAP1 DIV PUSH1 0xFF AND DUP2 JUMP JUMPDEST PUSH1 0x1 PUSH1 0x9 SWAP1 SLOAD SWAP1 PUSH2 0x100 EXP SWAP1 DIV PUSH20 0xFFFFFFFFFFFFFFFFFFFFFFFFFFFFFFFFFFFFFFFF AND DUP2 JUMP INVALID LOG2 PUSH5 0x6970667358 0x22 SLT KECCAK256 SHL 0xAD ORIGIN TIMESTAMP 0xC MOD DUP16 0xBD 0xAF 0x29 0xC 0xE9 0xC6 PUSH24 0xEFA2DF6AB7EB9985173D567A4EE6DC67B58D64736F6C6343 STOP MOD 0xC STOP CALLER "
				},
				"gasEstimates": {
					"creation": {
						"codeDepositCost": "222000",
						"executionCost": "296183",
						"totalCost": "518183"
					},
					"external": {
						"": "220",
						"addPassword(uint256,bytes32,uint256,bytes32)": "61464",
						"bool_2()": "1183",
						"bool_3()": "1163",
						"constant1()": "272",
						"contractAdd()": "1185",
						"getOTP()": "42018",
						"locked()": "1047",
						"unlock(uint256)": "23773",
						"var16_3()": "1141",
						"var256_1()": "1028"
					}
				},
				"methodIdentifiers": {
					"addPassword(uint256,bytes32,uint256,bytes32)": "099290a4",
					"bool_2()": "be3a34a8",
					"bool_3()": "fa1cd153",
					"constant1()": "74d96989",
					"contractAdd()": "fdb2f39e",
					"getOTP()": "dfff67d9",
					"locked()": "cf309012",
					"unlock(uint256)": "6198e339",
					"var16_3()": "e94ad87b",
					"var256_1()": "1a9f5a79"
				}
			},
			"storageLayout": {
				"storage": [
					{
						"astId": 64,
						"contract": "contracts/Hacking/passwordsafe2.sol:PasswordSafe2",
						"label": "var256_1",
						"offset": 0,
						"slot": "0",
						"type": "t_uint256"
					},
					{
						"astId": 67,
						"contract": "contracts/Hacking/passwordsafe2.sol:PasswordSafe2",
						"label": "locked",
						"offset": 0,
						"slot": "1",
						"type": "t_bool"
					},
					{
						"astId": 70,
						"contract": "contracts/Hacking/passwordsafe2.sol:PasswordSafe2",
						"label": "bool_2",
						"offset": 1,
						"slot": "1",
						"type": "t_bool"
					},
					{
						"astId": 73,
						"contract": "contracts/Hacking/passwordsafe2.sol:PasswordSafe2",
						"label": "bool_3",
						"offset": 2,
						"slot": "1",
						"type": "t_bool"
					},
					{
						"astId": 76,
						"contract": "contracts/Hacking/passwordsafe2.sol:PasswordSafe2",
						"label": "var16_3",
						"offset": 3,
						"slot": "1",
						"type": "t_uint16"
					},
					{
						"astId": 79,
						"contract": "contracts/Hacking/passwordsafe2.sol:PasswordSafe2",
						"label": "useThis",
						"offset": 5,
						"slot": "1",
						"type": "t_uint16"
					},
					{
						"astId": 82,
						"contract": "contracts/Hacking/passwordsafe2.sol:PasswordSafe2",
						"label": "var16_2",
						"offset": 7,
						"slot": "1",
						"type": "t_uint16"
					},
					{
						"astId": 88,
						"contract": "contracts/Hacking/passwordsafe2.sol:PasswordSafe2",
						"label": "contractAdd",
						"offset": 9,
						"slot": "1",
						"type": "t_address"
					},
					{
						"astId": 91,
						"contract": "contracts/Hacking/passwordsafe2.sol:PasswordSafe2",
						"label": "otpUseTime",
						"offset": 0,
						"slot": "2",
						"type": "t_uint256"
					},
					{
						"astId": 94,
						"contract": "contracts/Hacking/passwordsafe2.sol:PasswordSafe2",
						"label": "var256_3",
						"offset": 0,
						"slot": "3",
						"type": "t_uint256"
					},
					{
						"astId": 96,
						"contract": "contracts/Hacking/passwordsafe2.sol:PasswordSafe2",
						"label": "notThePW",
						"offset": 0,
						"slot": "4",
						"type": "t_bytes32"
					},
					{
						"astId": 98,
						"contract": "contracts/Hacking/passwordsafe2.sol:PasswordSafe2",
						"label": "ThisIsThePassword",
						"offset": 0,
						"slot": "5",
						"type": "t_bytes32"
					},
					{
						"astId": 101,
						"contract": "contracts/Hacking/passwordsafe2.sol:PasswordSafe2",
						"label": "efgh",
						"offset": 0,
						"slot": "6",
						"type": "t_uint16"
					},
					{
						"astId": 104,
						"contract": "contracts/Hacking/passwordsafe2.sol:PasswordSafe2",
						"label": "_Pass",
						"offset": 2,
						"slot": "6",
						"type": "t_bool"
					},
					{
						"astId": 107,
						"contract": "contracts/Hacking/passwordsafe2.sol:PasswordSafe2",
						"label": "_This",
						"offset": 3,
						"slot": "6",
						"type": "t_bool"
					},
					{
						"astId": 110,
						"contract": "contracts/Hacking/passwordsafe2.sol:PasswordSafe2",
						"label": "_Level",
						"offset": 4,
						"slot": "6",
						"type": "t_bool"
					},
					{
						"astId": 112,
						"contract": "contracts/Hacking/passwordsafe2.sol:PasswordSafe2",
						"label": "owner",
						"offset": 5,
						"slot": "6",
						"type": "t_address"
					},
					{
						"astId": 114,
						"contract": "contracts/Hacking/passwordsafe2.sol:PasswordSafe2",
						"label": "counter",
						"offset": 25,
						"slot": "6",
						"type": "t_uint16"
					},
					{
						"astId": 128,
						"contract": "contracts/Hacking/passwordsafe2.sol:PasswordSafe2",
						"label": "passwordBook",
						"offset": 0,
						"slot": "7",
						"type": "t_mapping(t_uint256,t_struct(Passwords)124_storage)"
					}
				],
				"types": {
					"t_address": {
						"encoding": "inplace",
						"label": "address",
						"numberOfBytes": "20"
					},
					"t_bool": {
						"encoding": "inplace",
						"label": "bool",
						"numberOfBytes": "1"
					},
					"t_bytes32": {
						"encoding": "inplace",
						"label": "bytes32",
						"numberOfBytes": "32"
					},
					"t_mapping(t_uint256,t_struct(Passwords)124_storage)": {
						"encoding": "mapping",
						"key": "t_uint256",
						"label": "mapping(uint256 => struct PasswordSafe2.Passwords)",
						"numberOfBytes": "32",
						"value": "t_struct(Passwords)124_storage"
					},
					"t_struct(Passwords)124_storage": {
						"encoding": "inplace",
						"label": "struct PasswordSafe2.Passwords",
						"members": [
							{
								"astId": 119,
								"contract": "contracts/Hacking/passwordsafe2.sol:PasswordSafe2",
								"label": "name",
								"offset": 0,
								"slot": "0",
								"type": "t_bytes32"
							},
							{
								"astId": 121,
								"contract": "contracts/Hacking/passwordsafe2.sol:PasswordSafe2",
								"label": "secretKey",
								"offset": 0,
								"slot": "1",
								"type": "t_uint256"
							},
							{
								"astId": 123,
								"contract": "contracts/Hacking/passwordsafe2.sol:PasswordSafe2",
								"label": "password",
								"offset": 0,
								"slot": "2",
								"type": "t_bytes32"
							}
						],
						"numberOfBytes": "96"
					},
					"t_uint16": {
						"encoding": "inplace",
						"label": "uint16",
						"numberOfBytes": "2"
					},
					"t_uint256": {
						"encoding": "inplace",
						"label": "uint256",
						"numberOfBytes": "32"
					}
				}
			},
			"userdoc": {
				"kind": "user",
				"methods": {},
				"version": 1
			}
		}
	}
}