{
	"data": {
		"bytecode": {
			"linkReferences": {},
			"object": "60806040527f800000000000000000000000000000000000000000000000000000000000000060025534801561003457600080fd5b50600080819055506104008061004b6000396000f3fe608060405234801561001057600080fd5b50600436106100415760003560e01c80631d263f67146100465780635f72f45014610076578063e6f334d7146100a6575b600080fd5b610060600480360381019061005b91906101d4565b6100c4565b60405161006d9190610244565b60405180910390f35b610090600480360381019061008b91906101fd565b61015b565b60405161009d9190610244565b60405180910390f35b6100ae6101a4565b6040516100bb919061025f565b60405180910390f35b6000806001436100d491906102ab565b4060001c90508060015414156100e957600080fd5b80600181905550600060025482610100919061027a565b9050600060018214610113576000610116565b60015b9050841515811515141561014757600080815480929190610136906102f5565b919050555060019350505050610156565b60008081905550600093505050505b919050565b60008060018361016b91906102ab565b4060001c9050600060025482610181919061027a565b9050600060018214610194576000610197565b60015b9050809350505050919050565b60005481565b6000813590506101b98161039c565b92915050565b6000813590506101ce816103b3565b92915050565b6000602082840312156101e657600080fd5b60006101f4848285016101aa565b91505092915050565b60006020828403121561020f57600080fd5b600061021d848285016101bf565b91505092915050565b61022f816102df565b82525050565b61023e816102eb565b82525050565b60006020820190506102596000830184610226565b92915050565b60006020820190506102746000830184610235565b92915050565b6000610285826102eb565b9150610290836102eb565b9250826102a05761029f61036d565b5b828204905092915050565b60006102b6826102eb565b91506102c1836102eb565b9250828210156102d4576102d361033e565b5b828203905092915050565b60008115159050919050565b6000819050919050565b6000610300826102eb565b91507fffffffffffffffffffffffffffffffffffffffffffffffffffffffffffffffff8214156103335761033261033e565b5b600182019050919050565b7f4e487b7100000000000000000000000000000000000000000000000000000000600052601160045260246000fd5b7f4e487b7100000000000000000000000000000000000000000000000000000000600052601260045260246000fd5b6103a5816102df565b81146103b057600080fd5b50565b6103bc816102eb565b81146103c757600080fd5b5056fea2646970667358221220076e4c31dc88c41acc7b645d5aef500a1ddec1880ea165aeda64fb2a65b9920c64736f6c63430008000033",
			"opcodes": "PUSH1 0x80 PUSH1 0x40 MSTORE PUSH32 0x8000000000000000000000000000000000000000000000000000000000000000 PUSH1 0x2 SSTORE CALLVALUE DUP1 ISZERO PUSH2 0x34 JUMPI PUSH1 0x0 DUP1 REVERT JUMPDEST POP PUSH1 0x0 DUP1 DUP2 SWAP1 SSTORE POP PUSH2 0x400 DUP1 PUSH2 0x4B PUSH1 0x0 CODECOPY PUSH1 0x0 RETURN INVALID PUSH1 0x80 PUSH1 0x40 MSTORE CALLVALUE DUP1 ISZERO PUSH2 0x10 JUMPI PUSH1 0x0 DUP1 REVERT JUMPDEST POP PUSH1 0x4 CALLDATASIZE LT PUSH2 0x41 JUMPI PUSH1 0x0 CALLDATALOAD PUSH1 0xE0 SHR DUP1 PUSH4 0x1D263F67 EQ PUSH2 0x46 JUMPI DUP1 PUSH4 0x5F72F450 EQ PUSH2 0x76 JUMPI DUP1 PUSH4 0xE6F334D7 EQ PUSH2 0xA6 JUMPI JUMPDEST PUSH1 0x0 DUP1 REVERT JUMPDEST PUSH2 0x60 PUSH1 0x4 DUP1 CALLDATASIZE SUB DUP2 ADD SWAP1 PUSH2 0x5B SWAP2 SWAP1 PUSH2 0x1D4 JUMP JUMPDEST PUSH2 0xC4 JUMP JUMPDEST PUSH1 0x40 MLOAD PUSH2 0x6D SWAP2 SWAP1 PUSH2 0x244 JUMP JUMPDEST PUSH1 0x40 MLOAD DUP1 SWAP2 SUB SWAP1 RETURN JUMPDEST PUSH2 0x90 PUSH1 0x4 DUP1 CALLDATASIZE SUB DUP2 ADD SWAP1 PUSH2 0x8B SWAP2 SWAP1 PUSH2 0x1FD JUMP JUMPDEST PUSH2 0x15B JUMP JUMPDEST PUSH1 0x40 MLOAD PUSH2 0x9D SWAP2 SWAP1 PUSH2 0x244 JUMP JUMPDEST PUSH1 0x40 MLOAD DUP1 SWAP2 SUB SWAP1 RETURN JUMPDEST PUSH2 0xAE PUSH2 0x1A4 JUMP JUMPDEST PUSH1 0x40 MLOAD PUSH2 0xBB SWAP2 SWAP1 PUSH2 0x25F JUMP JUMPDEST PUSH1 0x40 MLOAD DUP1 SWAP2 SUB SWAP1 RETURN JUMPDEST PUSH1 0x0 DUP1 PUSH1 0x1 NUMBER PUSH2 0xD4 SWAP2 SWAP1 PUSH2 0x2AB JUMP JUMPDEST BLOCKHASH PUSH1 0x0 SHR SWAP1 POP DUP1 PUSH1 0x1 SLOAD EQ ISZERO PUSH2 0xE9 JUMPI PUSH1 0x0 DUP1 REVERT JUMPDEST DUP1 PUSH1 0x1 DUP2 SWAP1 SSTORE POP PUSH1 0x0 PUSH1 0x2 SLOAD DUP3 PUSH2 0x100 SWAP2 SWAP1 PUSH2 0x27A JUMP JUMPDEST SWAP1 POP PUSH1 0x0 PUSH1 0x1 DUP3 EQ PUSH2 0x113 JUMPI PUSH1 0x0 PUSH2 0x116 JUMP JUMPDEST PUSH1 0x1 JUMPDEST SWAP1 POP DUP5 ISZERO ISZERO DUP2 ISZERO ISZERO EQ ISZERO PUSH2 0x147 JUMPI PUSH1 0x0 DUP1 DUP2 SLOAD DUP1 SWAP3 SWAP2 SWAP1 PUSH2 0x136 SWAP1 PUSH2 0x2F5 JUMP JUMPDEST SWAP2 SWAP1 POP SSTORE POP PUSH1 0x1 SWAP4 POP POP POP POP PUSH2 0x156 JUMP JUMPDEST PUSH1 0x0 DUP1 DUP2 SWAP1 SSTORE POP PUSH1 0x0 SWAP4 POP POP POP POP JUMPDEST SWAP2 SWAP1 POP JUMP JUMPDEST PUSH1 0x0 DUP1 PUSH1 0x1 DUP4 PUSH2 0x16B SWAP2 SWAP1 PUSH2 0x2AB JUMP JUMPDEST BLOCKHASH PUSH1 0x0 SHR SWAP1 POP PUSH1 0x0 PUSH1 0x2 SLOAD DUP3 PUSH2 0x181 SWAP2 SWAP1 PUSH2 0x27A JUMP JUMPDEST SWAP1 POP PUSH1 0x0 PUSH1 0x1 DUP3 EQ PUSH2 0x194 JUMPI PUSH1 0x0 PUSH2 0x197 JUMP JUMPDEST PUSH1 0x1 JUMPDEST SWAP1 POP DUP1 SWAP4 POP POP POP POP SWAP2 SWAP1 POP JUMP JUMPDEST PUSH1 0x0 SLOAD DUP2 JUMP JUMPDEST PUSH1 0x0 DUP2 CALLDATALOAD SWAP1 POP PUSH2 0x1B9 DUP2 PUSH2 0x39C JUMP JUMPDEST SWAP3 SWAP2 POP POP JUMP JUMPDEST PUSH1 0x0 DUP2 CALLDATALOAD SWAP1 POP PUSH2 0x1CE DUP2 PUSH2 0x3B3 JUMP JUMPDEST SWAP3 SWAP2 POP POP JUMP JUMPDEST PUSH1 0x0 PUSH1 0x20 DUP3 DUP5 SUB SLT ISZERO PUSH2 0x1E6 JUMPI PUSH1 0x0 DUP1 REVERT JUMPDEST PUSH1 0x0 PUSH2 0x1F4 DUP5 DUP3 DUP6 ADD PUSH2 0x1AA JUMP JUMPDEST SWAP2 POP POP SWAP3 SWAP2 POP POP JUMP JUMPDEST PUSH1 0x0 PUSH1 0x20 DUP3 DUP5 SUB SLT ISZERO PUSH2 0x20F JUMPI PUSH1 0x0 DUP1 REVERT JUMPDEST PUSH1 0x0 PUSH2 0x21D DUP5 DUP3 DUP6 ADD PUSH2 0x1BF JUMP JUMPDEST SWAP2 POP POP SWAP3 SWAP2 POP POP JUMP JUMPDEST PUSH2 0x22F DUP2 PUSH2 0x2DF JUMP JUMPDEST DUP3 MSTORE POP POP JUMP JUMPDEST PUSH2 0x23E DUP2 PUSH2 0x2EB JUMP JUMPDEST DUP3 MSTORE POP POP JUMP JUMPDEST PUSH1 0x0 PUSH1 0x20 DUP3 ADD SWAP1 POP PUSH2 0x259 PUSH1 0x0 DUP4 ADD DUP5 PUSH2 0x226 JUMP JUMPDEST SWAP3 SWAP2 POP POP JUMP JUMPDEST PUSH1 0x0 PUSH1 0x20 DUP3 ADD SWAP1 POP PUSH2 0x274 PUSH1 0x0 DUP4 ADD DUP5 PUSH2 0x235 JUMP JUMPDEST SWAP3 SWAP2 POP POP JUMP JUMPDEST PUSH1 0x0 PUSH2 0x285 DUP3 PUSH2 0x2EB JUMP JUMPDEST SWAP2 POP PUSH2 0x290 DUP4 PUSH2 0x2EB JUMP JUMPDEST SWAP3 POP DUP3 PUSH2 0x2A0 JUMPI PUSH2 0x29F PUSH2 0x36D JUMP JUMPDEST JUMPDEST DUP3 DUP3 DIV SWAP1 POP SWAP3 SWAP2 POP POP JUMP JUMPDEST PUSH1 0x0 PUSH2 0x2B6 DUP3 PUSH2 0x2EB JUMP JUMPDEST SWAP2 POP PUSH2 0x2C1 DUP4 PUSH2 0x2EB JUMP JUMPDEST SWAP3 POP DUP3 DUP3 LT ISZERO PUSH2 0x2D4 JUMPI PUSH2 0x2D3 PUSH2 0x33E JUMP JUMPDEST JUMPDEST DUP3 DUP3 SUB SWAP1 POP SWAP3 SWAP2 POP POP JUMP JUMPDEST PUSH1 0x0 DUP2 ISZERO ISZERO SWAP1 POP SWAP2 SWAP1 POP JUMP JUMPDEST PUSH1 0x0 DUP2 SWAP1 POP SWAP2 SWAP1 POP JUMP JUMPDEST PUSH1 0x0 PUSH2 0x300 DUP3 PUSH2 0x2EB JUMP JUMPDEST SWAP2 POP PUSH32 0xFFFFFFFFFFFFFFFFFFFFFFFFFFFFFFFFFFFFFFFFFFFFFFFFFFFFFFFFFFFFFFFF DUP3 EQ ISZERO PUSH2 0x333 JUMPI PUSH2 0x332 PUSH2 0x33E JUMP JUMPDEST JUMPDEST PUSH1 0x1 DUP3 ADD SWAP1 POP SWAP2 SWAP1 POP JUMP JUMPDEST PUSH32 0x4E487B7100000000000000000000000000000000000000000000000000000000 PUSH1 0x0 MSTORE PUSH1 0x11 PUSH1 0x4 MSTORE PUSH1 0x24 PUSH1 0x0 REVERT JUMPDEST PUSH32 0x4E487B7100000000000000000000000000000000000000000000000000000000 PUSH1 0x0 MSTORE PUSH1 0x12 PUSH1 0x4 MSTORE PUSH1 0x24 PUSH1 0x0 REVERT JUMPDEST PUSH2 0x3A5 DUP2 PUSH2 0x2DF JUMP JUMPDEST DUP2 EQ PUSH2 0x3B0 JUMPI PUSH1 0x0 DUP1 REVERT JUMPDEST POP JUMP JUMPDEST PUSH2 0x3BC DUP2 PUSH2 0x2EB JUMP JUMPDEST DUP2 EQ PUSH2 0x3C7 JUMPI PUSH1 0x0 DUP1 REVERT JUMPDEST POP JUMP INVALID LOG2 PUSH5 0x6970667358 0x22 SLT KECCAK256 SMOD PUSH15 0x4C31DC88C41ACC7B645D5AEF500A1D 0xDE 0xC1 DUP9 0xE LOG1 PUSH6 0xAEDA64FB2A65 0xB9 SWAP3 0xC PUSH5 0x736F6C6343 STOP ADDMOD STOP STOP CALLER "
		},
		"gasEstimates": {
			"creation": {
				"codeDepositCost": "204800",
				"executionCost": "25265",
				"totalCost": "230065"
			},
			"external": {
				"check(uint256)": "infinite",
				"consecutiveWins()": "1151",
				"flip(bool)": "infinite"
			}
		},
		"methodIdentifiers": {
			"check(uint256)": "5f72f450",
			"consecutiveWins()": "e6f334d7",
			"flip(bool)": "1d263f67"
		}
	},
	"abi": [
		{
			"inputs": [],
			"stateMutability": "nonpayable",
			"type": "constructor"
		},
		{
			"inputs": [
				{
					"internalType": "uint256",
					"name": "num",
					"type": "uint256"
				}
			],
			"name": "check",
			"outputs": [
				{
					"internalType": "bool",
					"name": "",
					"type": "bool"
				}
			],
			"stateMutability": "view",
			"type": "function"
		},
		{
			"inputs": [],
			"name": "consecutiveWins",
			"outputs": [
				{
					"internalType": "uint256",
					"name": "",
					"type": "uint256"
				}
			],
			"stateMutability": "view",
			"type": "function"
		},
		{
			"inputs": [
				{
					"internalType": "bool",
					"name": "_guess",
					"type": "bool"
				}
			],
			"name": "flip",
			"outputs": [
				{
					"internalType": "bool",
					"name": "",
					"type": "bool"
				}
			],
			"stateMutability": "nonpayable",
			"type": "function"
		}
	]
}